{
  "contractName": "Subscribe",
  "abi": [
    {
      "constant": true,
      "inputs": [],
      "name": "feeAddress",
      "outputs": [
        {
          "name": "",
          "type": "address"
        }
      ],
      "payable": false,
      "stateMutability": "view",
      "type": "function",
      "signature": "0x41275358"
    },
    {
      "anonymous": false,
      "inputs": [
        {
          "indexed": true,
          "name": "subscriber",
          "type": "address"
        },
        {
          "indexed": true,
          "name": "creator",
          "type": "address"
        },
        {
          "indexed": false,
          "name": "user",
          "type": "string"
        },
        {
          "indexed": false,
          "name": "tier",
          "type": "string"
        },
        {
          "indexed": false,
          "name": "amount",
          "type": "uint256"
        }
      ],
      "name": "Subscription",
      "type": "event",
      "signature": "0x94d54ddeae526d476c635c9893fba1c20206acf2ac27c18f35e7daf93c36fac1"
    },
    {
      "anonymous": false,
      "inputs": [
        {
          "indexed": true,
          "name": "wallet",
          "type": "address"
        },
        {
          "indexed": true,
          "name": "recipient",
          "type": "address"
        },
        {
          "indexed": false,
          "name": "amount",
          "type": "uint256"
        }
      ],
      "name": "Withdrawal",
      "type": "event",
      "signature": "0x2717ead6b9200dd235aad468c9809ea400fe33ac69b5bfaa6d3e90fc922b6398"
    },
    {
      "constant": false,
      "inputs": [
        {
          "name": "creator",
          "type": "address"
        },
        {
          "name": "user",
          "type": "string"
        },
        {
          "name": "tier",
          "type": "string"
        }
      ],
      "name": "NewSubscription",
      "outputs": [],
      "payable": true,
      "stateMutability": "payable",
      "type": "function",
      "signature": "0xed36bbb7"
    },
    {
      "constant": false,
      "inputs": [
        {
          "name": "recipient",
          "type": "address"
        }
      ],
      "name": "Withdraw",
      "outputs": [],
      "payable": true,
      "stateMutability": "payable",
      "type": "function",
      "signature": "0xf6761151"
    }
  ],
  "bytecode": "0x6080604052732e339b901ab2e66884284e187c193ecacf3e88f56000806101000a81548173ffffffffffffffffffffffffffffffffffffffff021916908373ffffffffffffffffffffffffffffffffffffffff16021790555066b1a2bc2ec5000060015534801561006f57600080fd5b5061069f8061007f6000396000f3fe608060405260043610610057576000357c0100000000000000000000000000000000000000000000000000000000900463ffffffff168063412753581461005c578063ed36bbb7146100b3578063f676115114610225575b600080fd5b34801561006857600080fd5b50610071610269565b604051808273ffffffffffffffffffffffffffffffffffffffff1673ffffffffffffffffffffffffffffffffffffffff16815260200191505060405180910390f35b610223600480360360608110156100c957600080fd5b81019080803573ffffffffffffffffffffffffffffffffffffffff1690602001909291908035906020019064010000000081111561010657600080fd5b82018360208201111561011857600080fd5b8035906020019184600183028401116401000000008311171561013a57600080fd5b91908080601f016020809104026020016040519081016040528093929190818152602001838380828437600081840152601f19601f8201169050808301925050505050505091929192908035906020019064010000000081111561019d57600080fd5b8201836020820111156101af57600080fd5b803590602001918460018302840111640100000000831117156101d157600080fd5b91908080601f016020809104026020016040519081016040528093929190818152602001838380828437600081840152601f19601f82011690508083019250505050505050919291929050505061028e565b005b6102676004803603602081101561023b57600080fd5b81019080803573ffffffffffffffffffffffffffffffffffffffff1690602001909291905050506104a9565b005b6000809054906101000a900473ffffffffffffffffffffffffffffffffffffffff1681565b6000349050600033905060006102af600154846105e890919063ffffffff16565b90508573ffffffffffffffffffffffffffffffffffffffff166108fc829081150290604051600060405180830381858888f193505050501580156102f7573d6000803e3d6000fd5b506000809054906101000a900473ffffffffffffffffffffffffffffffffffffffff1673ffffffffffffffffffffffffffffffffffffffff166108fc6001549081150290604051600060405180830381858888f19350505050158015610361573d6000803e3d6000fd5b508573ffffffffffffffffffffffffffffffffffffffff168273ffffffffffffffffffffffffffffffffffffffff167f94d54ddeae526d476c635c9893fba1c20206acf2ac27c18f35e7daf93c36fac1878787604051808060200180602001848152602001838103835286818151815260200191508051906020019080838360005b838110156103fe5780820151818401526020810190506103e3565b50505050905090810190601f16801561042b5780820380516001836020036101000a031916815260200191505b50838103825285818151815260200191508051906020019080838360005b83811015610464578082015181840152602081019050610449565b50505050905090810190601f1680156104915780820380516001836020036101000a031916815260200191505b509550505050505060405180910390a3505050505050565b6000349050600033905060006104ca600154846105e890919063ffffffff16565b90508373ffffffffffffffffffffffffffffffffffffffff166108fc829081150290604051600060405180830381858888f19350505050158015610512573d6000803e3d6000fd5b506000809054906101000a900473ffffffffffffffffffffffffffffffffffffffff1673ffffffffffffffffffffffffffffffffffffffff166108fc6001549081150290604051600060405180830381858888f1935050505015801561057c573d6000803e3d6000fd5b508373ffffffffffffffffffffffffffffffffffffffff168273ffffffffffffffffffffffffffffffffffffffff167f2717ead6b9200dd235aad468c9809ea400fe33ac69b5bfaa6d3e90fc922b6398856040518082815260200191505060405180910390a350505050565b6000828211151515610662576040517f08c379a000000000000000000000000000000000000000000000000000000000815260040180806020018281038252600c8152602001807f737562206f766572666c6f77000000000000000000000000000000000000000081525060200191505060405180910390fd5b60008284039050809150509291505056fea165627a7a72305820712cdd2b91d0e194c250d9001370f52f99b4d1fdd2a8fe7233b52451adcf48040029",
  "source": "pragma solidity ^0.5.0;\n\nimport \"./SafeMath.sol\";\n\n/**\n * @title Subscribe\n * @dev A Simple Subscription and Withdrawal Smart Contract for Decentralized Creator\n */\ncontract Subscribe {\n\n    using SafeMath for uint256;\n\n    /**\n    * @dev The address that receives fees for routing transactions\n    */\n    address payable public feeAddress = 0x2e339b901aB2e66884284e187c193ECACf3E88F5;\n\n    /**\n    * @dev How much ether is sent every time a subscription or withdrawal is made\n    */\n    uint256 feeAmount = 0.05 ether;\n\n    /**\n    * @dev An event when a subscription is made\n    */\n    event Subscription(\n        address indexed subscriber,\n        address indexed creator,\n        string user,\n        string tier,\n        uint256 amount\n    );\n\n    /**\n    * @dev An event when a withdrawal is made (for custodial DC wallet users only)\n    */\n    event Withdrawal(\n        address indexed wallet,\n        address indexed recipient,\n        uint256 amount\n    );\n\n    /**\n    * @dev Creates a new subscription, this subscription is confirmed when DC gets the transaction hash\n    */\n    function NewSubscription(address payable creator, string memory user, string memory tier) public payable {\n        uint256 amount = msg.value;\n        address subscriber = msg.sender;\n\n        uint256 payout = amount.sub(feeAmount);\n\n        creator.transfer(payout);\n        feeAddress.transfer(feeAmount);\n\n        emit Subscription(subscriber, creator, user, tier, amount);\n    }\n\n    /**\n    * @dev Withdraws funds from a DC specific wallet. Intended for custodial DC wallets only\n    */\n    function Withdraw(address payable recipient) public payable {\n        uint256 amount = msg.value;\n        address wallet = msg.sender;\n\n        uint256 payout = amount.sub(feeAmount);\n\n        recipient.transfer(payout);\n        feeAddress.transfer(feeAmount);\n\n        emit Withdrawal(wallet, recipient, amount);\n    }\n\n}\n",
  "sourcePath": "/Users/itschriscates/Projects/decentralizedcreator.com/solidity/contracts/Subscribe.sol",
  "compiler": {
    "name": "solc",
    "version": "0.5.0+commit.1d4f565a.Emscripten.clang"
  },
  "schemaVersion": "3.0.1",
  "updatedAt": "2019-02-01T12:16:11.282Z",
  "devdoc": {
    "details": "A Simple Subscription and Withdrawal Smart Contract for Decentralized Creator",
    "methods": {
      "NewSubscription(address,string,string)": {
        "details": "Creates a new subscription, this subscription is confirmed when DC gets the transaction hash"
      },
      "Withdraw(address)": {
        "details": "Withdraws funds from a DC specific wallet. Intended for custodial DC wallets only"
      }
    },
    "title": "Subscribe"
  },
  "userdoc": {
    "methods": {}
  }
}